:100000000C944A000C9472000C9472000C947200D0
:100010000C9472000C9472000C9472000C94720098
:100020000C9472000C9472000C9472000C94720088
:100030000C9472000C9472000C9472000C94720078
:100040000C9486140C9472000C94E6110C943412E7
:100050000C9472000C9472000C9472000C94720058
:100060000C9472000C94720021402324255E262AF1
:1000700028295F2B7B7D7C7E3A227E3C3E3F2D3DB6
:100080005B5D5C203B27602C2E2F2F2A2D2B13002D
:10009000AB01A01311241FBECFEFD8E0DEBFCDBF50
:1000A00012E0A0E0B1E0EAE1FBE202C005900D92AF
:1000B000AC31B107D9F713E0ACE1B2E001C01D9259
:1000C000A437B107E1F710E0C4E9D0E004C02297FB
:1000D000FE010E948715C039D107C9F70E94F613A7
:1000E0000C948B150C94000080E00895089580E036
:1000F000089580E008950895E62FF0E0EE0FFF1FC9
:10010000E80FF91F5687458781E008952A986260B5
:100110006EBD0DB407FEFDCF4EBD0DB407FEFDCF85
:100120002A9A08952A986EBD0DB407FEFDCF1EBC15
:100130000DB407FEFDCF2A9A8EB50895EF92FF9277
:100140000F931F93CF93DF938C01229A2A9A259ABB
:10015000239A2498229A80E58CBD81E08DBD219858
:10016000C80168E848E10E948600C80168E740E2EB
:100170000E948600C80168E740E00E948600EE24E5
:10018000FF24CFEFDFEF07C0C80168E60E949200AE
:10019000219780FD09C00894E11CF11C2097A1F76C
:1001A000EF2811F48FEF57C0C80168ED41EC0E94B1
:1001B0008600C80160ED40E60E948600C80168EE36
:1001C00044E00E948600C80168EE0E94920082FF0F
:1001D000FACFC80168EF0E949200807C803489F0D9
:1001E000813418F4882329F12BC0803819F0803C21
:1001F00039F51BC0C80168ED0E94920081FD07C05F
:100200000DC0C80168ED0E94920081FD07C0C801C1
:1002100068ED4BEC0E94860083E008C0C80168EDE1
:1002200049EC0E94860082E001C081E08093BA021E
:1002300007C0C80168ED41ED0E9486001092BA0225
:10024000C80168EC40E20E948600C80160E841E015
:100250000E94860080E0DF91CF911F910F91FF9067
:10026000EF9008950F931F938C01DC011496ED918C
:10027000FC911597A081B18114962D913C91159711
:10028000CF01F8016681F9010995D8011F961C92EA
:100290001F9750961C92509781E052968C935297DC
:1002A00016961C92F801138A148A158A168A178AE0
:1002B00080E01F910F910895FC0186810895E62F3B
:1002C000F0E0EE0FFF1FE80FF91F85859685089572
:1002D000EF92FF920F9302970E9472010F91FF908D
:1002E000EF900895EF92FF92CF93DF93DC01E70147
:1002F00052968C915297823028F01F968C911F97BE
:10030000681721F51F966C931F9750964C93509742
:100310008B8183708330D1F42A8127FF17C05296D6
:100320008C91529790E0FC01EE0FFF1FE80FF91F30
:10033000EA0FFB1F2F7027838C81808784E08187E1
:1003400052968C9152978F5F52968C93DF91CF91FA
:10035000FF90EF9008950F931F930CE112E0C801F6
:100360000E940108109398020093970280EE91E09A
:1003700090939402809393024A969093960280936E
:1003800095021092A6021092A7021092A802109253
:10039000A9021092AA0210929A0288E080939B020E
:1003A0008CE380939C0210929D0210929E0284E046
:1003B00080939F0281E08093A5021092A402109284
:1003C000A2021092A1021092A002A2E7B2E0E0E025
:1003D000F0E08D919C911197892B49F4EE0FFF1F4E
:1003E000EE58FD4F83E992E09183808305C03196FA
:1003F0001296E031F10569F71092B90280ED91E0B3
:100400009093B0028093AF021F910F910895CF9205
:10041000DF92EF92FF920F931F93DF93CF93CDB7AD
:10042000DEB762970FB6F894DEBF0FBECDBF6C018A
:10043000FC0187898823D1F1E388F488058916892E
:100440000E94CE146E157F058007910778F10E94F7
:10045000CE14665F7F4F8F4F9F4FF601638B748B77
:10046000858B968B838589831A8263E0E62EF12C37
:10047000EC0EFD1E84819581668142859E012F5F71
:100480003F4F87010E94F70B882381F4F601A58571
:10049000B685109759F0ED91FC9111970190F0817C
:1004A000E02DCD01B60140E02981099580E06296FA
:1004B0000FB6F894DEBF0FBECDBFCF91DF911F9175
:1004C0000F91FF90EF90DF90CF9008952F923F9281
:1004D0004F925F926F927F928F929F92AF92BF9254
:1004E000CF92DF92EF92FF920F931F93DF93CF9300
:1004F000CDB7DEB7EB970FB6F894DEBF0FBECDBF1A
:100500007C01362E242E2BAFDC011496CD90DC908E
:10051000159716968C91882311F019ED1EC1D601FE
:10052000ED91FC910190F081E02DC60160E009950C
:100530005C01009709F410C1FC0180809180811456
:10054000910411F417ED09C1B7E06B2E712C6E0CFC
:100550007F1CDC0111967C926E92EBAD1496EC93AD
:10056000D70114968D919C91159760E040E028E0AA
:1005700030E02E010894411C511C82010E94AE0FF4
:10058000182F8823B1F40981F50191828082D60168
:10059000ED91FC910280F381E02DC601632D40E0D6
:1005A000222D0995282FF7018683882331F414ED35
:1005B000D4C0D5018D929C92C6C0F2018781D7012B
:1005C00018968C93189714968D919C91159760E0CE
:1005D00040E00E94960E182FD601ED91FC918823E1
:1005E00071F0D50114961C920480F581E02DC601AE
:1005F000D70116966C910995F7011682AEC0D50108
:1006000014961C920190F081E02DC601D701169638
:100610006C910995FC01009709F49EC0202F0331CD
:1006200008F022E1BBADB483222379F0F701848185
:100630009581668140E030E08E010F5F1F4F0E9480
:10064000AE0F182F882309F07EC0D2015196CC90AE
:10065000F70184819581668141E093010E942D0814
:10066000182F882309F06FC0A2E08A2E912C8E0CDF
:100670009F1CDD24F0E02F2EF2E03F2EE3E14E2E12
:10068000512C4C0E5D1E73E2A72EB12CAC0EBD1E7C
:1006900025C03C8A2B8A9E8A8D8A18A21BAA1CAA76
:1006A0001DAAB98EA88EBB8EAA8E8F898D8F8C8F36
:1006B000BF8EAE8E1AA219A2D70152968C91529774
:1006C000823071F014968D919C91159716966C91CD
:1006D00040E02D2D82010E94410FD394DC14C8F21A
:1006E000F7018289823071F584819581668142E0CB
:1006F00093010E942D08D70114968D919C91159716
:1007000016966C91169740E01F962C910E94640EED
:10071000182F8823C1F4C701F701608940E00E94C7
:100720009405182F882379F4C70160E040E020E0A9
:100730000E94D005182F882331F481E0D701579605
:100740008C930BC011EDD701ED91FC910480F581E4
:10075000E02DC701099501C016ED812FEB960FB66C
:10076000F894DEBF0FBECDBFCF91DF911F910F91E7
:10077000FF90EF90DF90CF90BF90AF909F908F90C1
:100780007F906F905F904F903F902F900895EF92E1
:10079000FF920F931F93CF93DF93EC018B017A01AC
:1007A00088A1823049F1833030F4882351F08130C0
:1007B00009F0CBC010C0833029F1843009F0C5C0E6
:1007C0003DC082E08C832D813E8138872F838A87CC
:1007D000898781E088A3CE010796B801A7010E940E
:1007E0009F07882309F4B3C0ED81FE81808189A32E
:1007F00081818AA382E088A3CE0142969E838D8365
:1008000083E088A38AA1843051F0853018F48230C7
:1008100061F406C0853041F0813239F403C01BA277
:1008200087E002C089A182508C838D819E81988748
:100830008F838C818A87898784E088A38AA184300A
:1008400089F0853071F1823009F04BC0CE010796F6
:10085000B801A7010E949F07882309F478C08D89F9
:100860008CA36EC0CE010796B801A7010E949F0716
:10087000882309F46CC0FE0170968581833009F0ED
:100880005FC08681813009F05BC08781813009F0CB
:1008900057C08BA382818EA383818FA387818DA371
:1008A0004FC0CE010796B801A7010E949F07882379
:1008B00009F44DC08BA1882309F442C08A819B8131
:1008C0000097F1F1DC01ED91FC91DE015096019071
:1008D000F081E02D6CA14EA12FA10DA17D01099504
:1008E0002FC089A12D85222319F0213029F518C0A8
:1008F00090E002979F878E8781E08D8711C02150FD
:1009000030403F872E87F801808191810196918345
:100910008083D7018D919C91119701978D939C9322
:100920002E853F852115310531F0F70180819181B8
:10093000892B29F701C01D868E859F85892B39F467
:10094000CE0140969E838D8318A281E001C080E095
:10095000DF91CF911F910F91FF90EF900895CF926B
:10096000DF92EF92FF920F931F93DF93CF9300D00C
:1009700000D0CDB7DEB78C017A8369835C834B836B
:1009800083E0C82ED12CCC0EDD1E7E010894E11C24
:10099000F11C07C0C801B601A7010E94C703882344
:1009A00021F089819A81892BA9F70F900F900F90E0
:1009B0000F90CF91DF911F910F91FF90EF90DF90FB
:1009C000CF9008958CE192E00E94DC1008951F936F
:1009D000DF93CF9300D0CDB7DEB769834A83142F5E
:1009E000162710FF06C089E493E060E071E00E94E2
:1009F000731411FF06C089E493E061E171E00E9485
:100A0000731412FF06C089E493E063E271E00E9470
:100A1000731413FF06C089E493E063E371E00E945E
:100A2000731414FF06C089E493E063E471E00E944C
:100A3000731415FF06C089E493E065E571E00E9438
:100A4000731416FF06C089E493E068E671E00E9423
:100A5000731417FF06C089E493E069E771E00E9410
:100A600073140F900F90CF91DF911F91089589E437
:100A700093E040E051EE60E070E00E946F1289E484
:100A800093E06AE871E00E9473148CE192E00E94A6
:100A90009E008F3F31F489E493E069EB71E00E949E
:100AA000731468EC70E080E090E00E9402150E94F0
:100AB000CE1468577C4E8F4F9F4F6093AB0270935C
:100AC000AC028093AD029093AE028FEA92E09093D5
:100AD000A1028093A0020895633129F489E493E090
:100AE0000E943714089589E493E00E942F1408951A
:100AF0000F931F93DF93CF930F92CDB7DEB78C0187
:100B000069830E94F206682F882341F0D801ED9195
:100B1000FC910284F385E02DC80109950F90CF91D7
:100B2000DF911F910F9108958F929F92AF92BF9284
:100B3000CF92EF920F93CF93DF93DC01A62EE42E9A
:100B400000D000D000D0EDB7FEB7319614968D914D
:100B50009C911597CDB7DEB71A8219821382128243
:100B60001582148216966C9140E021E20BE0CC24B1
:100B7000BB24882499240E94690D2DB73EB72A5FB3
:100B80003F4F0FB6F8943EBF0FBE2DBFDF91CF9100
:100B90000F91EF90CF90BF90AF909F908F9008955E
:100BA0008F929F92AF92BF92CF92EF920F93CF937B
:100BB000DF93DC01A62EE42EC22E00D000D000D0A0
:100BC000EDB7FEB7319614968D919C911597CDB7E0
:100BD000DEB71A8219821382128215821482169647
:100BE0006C9140E021E20AE0BB24882499240E9411
:100BF000690D2DB73EB72A5F3F4F0FB6F8943EBF41
:100C00000FBE2DBFDF91CF910F91EF90CF90BF908E
:100C1000AF909F908F9008958F929F92AF92BF92C6
:100C2000CF92DF92EF92FF920F93CF93DF93DC018D
:100C3000362FA42E722F502F470100D000D000D0A5
:100C4000EDB7FEB7319614968D919C911597CDB75F
:100C5000DEB7FA82E982D382C282158214821696A6
:100C60006C91432F21E209E0E52EC72EBB240E94A0
:100C7000690D2DB73EB72A5F3F4F0FB6F8943EBFC0
:100C80000FBE2DBFDF91CF910F91FF90EF90DF90BE
:100C9000CF90BF90AF909F908F9008953F924F92CA
:100CA0005F926F927F928F929F92AF92BF92CF92FC
:100CB000DF92EF92FF920F931F93CF93DF93EC019C
:100CC0002B01D80112968C911297813009F478C0CB
:100CD0006A814C91641739F0E881F9810480F581CB
:100CE000E02DCE010995302E812E5E01C8017C01D8
:100CF0006E0186E0682E712C600E711E43C0149642
:100D00008C911497581719F4513009F021E0828121
:100D1000841721F4413011F0992493949F5F119628
:100D20003196983061F72223B9F4E881F981028085
:100D3000F381E02DCE01B201D70112964C910995B5
:100D4000E881F9810680F781E02DCE01D8016C9110
:100D5000D70112964C910995992059F4E881F981AF
:100D60000084F185E02DCE016A81D60114964C9164
:100D700009950894E11CF11C0894C11CD11CE614CF
:100D8000F70471F0F7015281D60114964C91DE01FF
:100D9000832D982D9C01F90120E0992492E0AFCF9A
:100DA00020E030E0F801E20FF31F8081F50182833B
:100DB0002F5F3F4F0894A11CB11C2830310591F7DB
:100DC000DF91CF911F910F91FF90EF90DF90CF9027
:100DD000BF90AF909F908F907F906F905F904F905B
:100DE0003F900895FC01842F84508A3170F48285ED
:100DF00081FD03C061FF06C002C061FD03C0842FF6
:100E0000835C0895842F835A08956272842F8E51D3
:100E1000893058F4662331F0E42FF0E0E65BFF4FB1
:100E200084910895842F8D5E0895842F895589308B
:100E300030F4828580FF3EC0842F88520895842F2D
:100E40008D528C3060F4E42FF0E0662321F0EB5BF0
:100E5000FF4F84910895EF5AFF4F84910895842F96
:100E60008455853030F4E42FF0E0EA5CFF4F849144
:100E700008954236A1F0433638F4483241F04C32FE
:100E800041F04732B9F407C04336A1F40CC083E106
:100E9000089580E20895662359F089E208958285D5
:100EA00080FF08C005C0828580FF04C08EE20895DF
:100EB00080E3089580E00895CF92DF92EF92FF9251
:100EC0000F93FC0122854734A9F0433519F04933CB
:100ED000E1F408C0922F90959170822F8E7F892B1C
:100EE000828713C0822F869580958170880F922FFC
:100EF0009D7F09C0822F8695869580958170880F89
:100F0000880F922F9B7F982B92878285281781F0DC
:100F10006115710569F03A96CB0160E040E022E08E
:100F200000E031E0E32EF12C6F010E940C0601C0BD
:100F300080E00F91FF90EF90DF90CF900895CF93D6
:100F4000DF93EC019A0188819981892BF9F42BC0F8
:100F50008B8190E0841B9109E881F981E80FF91FEA
:100F6000DB018D919C91DC018C9180838A81815081
:100F70008A83F90180819181019791838083DB01CC
:100F80008D919C91119701968D939C934A81442356
:100F900031F0F90180819181892BD1F604C08B81D8
:100FA0008A8381E001C080E0DF91CF910895FC0148
:100FB00086E092E091838083158281E081871286AA
:100FC0009F012E5F3F4F108637832683128288E071
:100FD00083838CE38483DF0181E091E01D961C9282
:100FE0001D971E969C931E971F961C921F971C96EA
:100FF0003C932E931B978F5F1596803179F715825E
:1010000008950F931F938C010E94D70781E180936D
:10101000BB020A581F4FF80110821F910F910895CB
:10102000AC01662321F49C012A5F3F4F14C0FC01F0
:1010300021E08585861739F02F5F35962031C9F775
:1010400020E030E008C085E0289F900111242A5F4D
:101050003F4F240F351FC90108950F931F93CF935E
:10106000DF93162F042FE9012115310511F488EDC6
:101070000CC00E941008FC01009711F486ED05C019
:101080001283D183C083038380E0DF91CF911F91CE
:101090000F9108951F93142F0E941008DC010097F0
:1010A00081F0ED91FC911197309769F013969C9126
:1010B00020E005C08081811731F033962F5F29171A
:1010C000C8F3E0E0F0E0CF011F910895AF92BF9226
:1010D000CF92DF92EF92FF920F931F93CF93DF9304
:1010E000EC01D62EC42E790158010E9410088C0103
:1010F000009711F486ED4CC0DC018D919C91892BF9
:1011000011F487ED45C0CE016D2D4C2D0E944A088B
:10111000FC01D7018D939C93009711F48BED38C09F
:10112000228126952695822F90E040971CF080E042
:1011300090E80BC081E090E0A0E0B0E004C0880F30
:10114000991FAA1FBB1F2A95D2F70197F50191831A
:101150008083FC2EED2ECE0160EE4D2D0E94860088
:10116000CE0168ED0E949200982FD80114968C91C0
:10117000882331F0CA58DF4F48814260492B02C0B2
:10118000492F497F8F2D9E2D68ED0E94860080E0BB
:10119000DF91CF911F910F91FF90EF90DF90CF9053
:1011A000BF90AF900895DF93CF930F92CDB7DEB786
:1011B000DC016983362F67FD69C0283008F066C0FE
:1011C000442319F4FD0191E006C015968C91159702
:1011D0008730C1F75BC08585882329F09F5F3596EE
:1011E0009031C9F753C0332379F5292F30E04423D8
:1011F00099F0F901EE0FFF1FEE0FFF1FE20FF31F33
:10120000EA0FFB1F81E4808715968C9115978F5FFD
:1012100015968C9315970BC0F901EE0FFF1FEE0F7B
:10122000FF1FE20FF31FEA0FFB1F81E08087892F6A
:1012300090E0FC01EE0FFF1FEE0FFF1FE80FF91FFC
:10124000EA0FFB1F208523C039813770330F330F1E
:10125000330F442361F015968C9115978F5F159687
:101260008C9315978770232F2064282B02C027703A
:10127000232B892F90E0FC01EE0FFF1FEE0FFF1FC5
:10128000E80FF91FEA0FFB1F208701C020E0822F23
:101290000F90CF91DF9108951F93CF93DF93EC01CF
:1012A00068EC0E94920085FD02C010E038C0CE01BB
:1012B00068EF0E949200807C803489F0813418F4B9
:1012C000882329F12BC0803819F0803C39F51BC0E8
:1012D000CE0168ED0E94920081FD07C00DC0CE01D5
:1012E00068ED0E94920081FD07C0CE0168ED4BECD5
:1012F0000E94860083E008C0CE0168ED49EC0E94A0
:10130000860082E001C081E08093BA0207C0CE016E
:1013100068ED41ED0E9486001092BA0210E2CE0103
:1013200068EC412F0E948600812FDF91CF911F91A1
:101330000895CF92DF92EF92FF920F931F93CF9376
:10134000DF938C01662309F44EC0C62EDD24E6012E
:10135000CC0FDD1FCC0FDD1FCC0DDD1D2896C80F77
:10136000D91F888186FF26C0FF24F394E5E0EE2E86
:1013700098818F2D81508F3010F0FF24F394977057
:101380000DC0FE9CF0011124E00FF11F80858695B1
:10139000869586958770891729F0F3948FE08F15CD
:1013A00080F71AC0C8016F2D0E949909E1CF9150B2
:1013B000F8019583F601EE0FFF1FEE0FFF1FEC0DF6
:1013C000FD1DE00FF11F108681E0818712860E5F00
:1013D0001F4F1783068307C0F801958188818770A6
:1013E000981741F7E4CFDF91CF911F910F91FF90B4
:1013F000EF90DF90CF900895DC01962F613491F447
:101400009D012E5F3F4FFD0181E091E0158696879B
:101410001786348723878F5F35968031B9F7159605
:101420001C920895FD0161E08585891729F06F5FA1
:1014300035966031C9F760E0CD010E9499090895A1
:101440009F92AF92BF92CF92DF92EF92FF920F9353
:101450001F93CF93DF936C01E42EA22E902EBB241A
:10146000C62FD0E0AB96CC0FDD1FC80FD91F042FBD
:1014700010E0055D1F4F000F111F080F191FE881B5
:10148000F981A081B18112960D90BC91A02DCF0160
:101490006E2D4A2D292DFD010995F82E80EEF816A6
:1014A000E1F4EE2061F4C60168EE41E00E9486009E
:1014B00066E670E080E090E00E94021518C0D80156
:1014C000ED91FC91A081B1811A962D913C911B97D1
:1014D000CF016A2DF90109950AC0BDE0FB1629F478
:1014E00082E08B1508F441C016C0FF20F1F5E881B9
:1014F000F981A081B1810D90BC91A02DCF016E2DFD
:101500004A2D292DFD010995F82EADE08A1759F4D1
:10151000B2E0BB1550F064E670E080E090E00E941D
:101520000215B394ACCF882301F1EE2061F4C6011B
:1015300068EE41E00E94860066E670E080E090E0A0
:101540000E94021512C0EE2DF0E0BB96EE0FFF1FB9
:10155000EC0DFD1DA081B181ED91FC9111970284EC
:10156000F385E02DCD016A2D09958F2DDF91CF9167
:101570001F910F91FF90EF90DF90CF90BF90AF90B1
:101580009F9008956F927F928F929F92AF92BF9299
:10159000CF92DF92EF92FF920F931F93CF93DF933F
:1015A0005C01162F842E39010E94CE146B017C0140
:1015B00080E197E2A0E0B0E0C80ED91EEA1EFB1E53
:1015C0009924C0E0D0E000E0812A30C0C50160EF7E
:1015D000482D0E9486000CC0C50168EC0E94920054
:1015E00087FF06C0C50168EC40E80E94860007C07E
:1015F0000E94CE146C157D058E059F0568F3C5010C
:1016000068EF0E949200082F0F70043019F00E301E
:10161000A1F408C021966114710441F0C615D705E4
:1016200029F40BC0939493E0991639F00E94CE14DC
:101630006C157D058E059F0548F2802FDF91CF91B7
:101640001F910F91FF90EF90DF90CF90BF90AF90E0
:101650009F908F907F906F9008952F923F924F921E
:101660005F926F927F928F929F92AF92BF92CF9232
:10167000DF92EF92FF920F931F93CF93DF93F82E99
:10168000E92EEB013A0169014801F901A080B1801E
:101690004980118210828A8181FD02C040E101C02F
:1016A00040E28F2D9E2D68EE0E94860041E0242EA0
:1016B000312C5A2C8F2D9E2D60E0488193010E9481
:1016C000C20A082F8630F1F48F2D9E2D68EF0E94FC
:1016D000920090E035E0969587953A95E1F782255E
:1016E00093258170880F2A812D7F282B2A8321FD45
:1016F00002C040E101C040E28F2D9E2D68EE0E94A5
:101700008600D8CF882309F05EC08F2D9E2D68EC0F
:101710000E94920082FD02C000EF55C08F2D9E2DC9
:1017200060E30E949200182F90E0A816B90608F412
:10173000152DF601808191812A98F8E0FEBD0DB447
:1017400007FEFDCF212F30E0A501481B590BCA0130
:1017500057FF02C080E090E0821793070CF49C01D1
:10176000922FF40107C01EBC0DB407FEFDCF9150AF
:101770008EB581939923B9F7820E911C2A9A8F2DE9
:101780009E2D68EC44E00E948600F60180819181E4
:10179000810F911D91838083141520F08A159B057C
:1017A00008F488CF8F2D9E2D68EF0E94920090E064
:1017B00024E0969587952A95E1F78170880F2A8114
:1017C0002D7F282B2A83802FDF91CF911F910F919E
:1017D000FF90EF90DF90CF90BF90AF909F908F9051
:1017E0007F906F905F904F903F902F900895AF92B1
:1017F000BF92CF92DF92EF92FF920F931F93DF93EE
:10180000CF9300D000D0CDB7DEB77C01690158017D
:101810001A8219821C821B829E012F5F3F4F8E010C
:101820000D5F1F4F0E946608882349F469817A8101
:101830004B815C81C701960185010E942D0B0F90A1
:101840000F900F900F90CF91DF911F910F91FF900C
:10185000EF90DF90CF90BF90AF9008952F923F927E
:101860004F925F926F927F928F929F92AF92BF92B0
:10187000CF92DF92EF92FF920F931F93DF93CF935C
:10188000CDB7DEB727970FB6F894DEBF0FBECDBF3A
:10189000F82EE92E7F836E835B834A83C22E732EDC
:1018A000DB011196DC908D2D8150803410F01AED03
:1018B000F1C00E94CE144B015C0180E197E2A0E0F0
:1018C000B0E0880E991EAA1EBB1EAE81BF81129683
:1018D0008C9180FD02C040E401C040E88F2D9E2D18
:1018E00068EE0E94860018012C2D372DC9012C01AD
:1018F00010E0ED2DF0E0FD83EC83B6C032012C81C9
:101900003D812415350508F4390169822A9832E1B0
:101910003EBD962DF10106C00DB407FEFDCF8191AD
:101920008EBD91509923C1F70DB407FEFDCF2A9AC1
:101930008F2D9E2D68E349810E948600AE81BF8174
:101940004C9140628F2D9E2D60EF0E9486008F2D5E
:101950009E2D68EC0E94920087FFF9CF8F2D9E2D5F
:1019600068EC40E80E9486008F2D9E2D68EF0E9453
:101970009200182F1F7000E0CC24DD2462C0089470
:10198000C11CD11CEA81FB81309759F1CE16DF06CC
:1019900041F56EC00F5F033021F56AC08F2D9E2D7B
:1019A00068EF0E94920090E065E0969587956A95B1
:1019B000E1F721E030E0822793278170AE81BF817B
:1019C00012962C9112972E7F282B12962C9320FD85
:1019D00002C040E401C040E88F2D9E2D68EE0E94B9
:1019E00086008F2D9E2D68E340E00E9486008F2D9B
:1019F0009E2D60E1F10140810E9486008F2D9E2D79
:101A000068E349810E948600AE81BF814C914062AB
:101A10008F2D9E2D60EF0E9486008F2D9E2D68ECED
:101A20000E94920087FFF9CF8F2D9E2D68EC40E831
:101A30000E9486008F2D9E2D68EF0E949200182F25
:101A40001F70112309F440C00E94CE146815790557
:101A50008A059B05C8F5163009F4A0CF1E3009F49D
:101A600099CF143029F48BCF4114510409F046CF9B
:101A70008F2D9E2D68EF0E94920090E055E0969584
:101A800087955A95E1F78170EE81FF8122812E7F43
:101A9000282B2283812F27960FB6F894DEBF0FBE26
:101AA000CDBFCF91DF911F910F91FF90EF90DF900D
:101AB000CF90BF90AF909F908F907F906F905F90EE
:101AC0004F903F902F90089546185708260C371CCA
:101AD000CBCF2F923F924F925F926F927F928F92D5
:101AE0009F92AF92BF92CF92DF92EF92FF920F93AD
:101AF0001F93DF93CF93CDB7DEB762970FB6F894FD
:101B0000DEBF0FBECDBF3C01498B2A8B502E4C2C23
:101B1000C9A4DAA42BA43CA41A8219821C821B82B9
:101B20009E012F5F3F4F8E010D5F1F4F0E94660881
:101B3000F82E882309F0AEC02A8929875A86EB86B9
:101B40004C86BE86AD86988A8F862A9882E28EBDA4
:101B5000FE0139969E012F5E3F4F05C00DB407FE72
:101B6000FDCF81918EBDE217F307C1F70DB407FEDB
:101B7000FDCF2A9A2B813C81C30160E149890E94F3
:101B8000C20AF82E882309F085C0EE243A8937FF6F
:101B900002C0EE24E394C114D10409F46FC0E981BA
:101BA000FA81EE2009F45BC0828182608283540155
:101BB000E1E04E2E512C4EC08FA198A59E838D83BF
:101BC00069817A814B815C81C3019E012B5F3F4F0C
:101BD00086010E942D0BF82E96E08917C9F4098121
:101BE0001A81C30168EF0E94920090E075E096951B
:101BF00087957A95E1F7842595258170880FD8011E
:101C000012962C9112972D7F282B12962C9322C07E
:101C1000882309F03FC02114310499F0D101ED91DE
:101C2000FC910190F081E02D6D817E81C4018A19C3
:101C30009B0998878F83C101A6019E01295F3F4FB1
:101C400009958D819E81EFA1F8A58E179F07D0F091
:101C5000A81AB90AA114B10409F0AECF0DC082814F
:101C6000816082834B815C81C301BF012FA138A5B4
:101C700086010E942E0CF82EFF2061F4EE2011F454
:101C800060E801C060EA2B813C81C30149890E9460
:101C9000C20AF82E8F2D62960FB6F894DEBF0FBEE3
:101CA000CDBFCF91DF911F910F91FF90EF90DF900B
:101CB000CF90BF90AF909F908F907F906F905F90EC
:101CC0004F903F902F9008958F929F92AF92BF9226
:101CD000CF92EF920F93E22E00D000D000D0EDB75C
:101CE000FEB73196ADB7BEB712961C921E921197F1
:101CF000138212821582148220E009E0CC24AA24E7
:101D0000BB24882499240E94690D2DB73EB72A5F11
:101D10003F4F0FB6F8943EBF0FBE2DBF0F91EF900F
:101D2000CF90BF90AF909F908F9008958F929F9289
:101D3000AF92BF92CF92EF920F93E22E00D000D0DD
:101D400000D0EDB7FEB73196ADB7BEB712961C9274
:101D50001E921197138212821582148220E005E0F0
:101D6000CC24AA24BB24882499240E94690D2DB771
:101D70003EB72A5F3F4F0FB6F8943EBF0FBE2DBF50
:101D80000F91EF90CF90BF90AF909F908F9008955C
:101D9000DF92EF92FF920F931F93F82EE92E162FEA
:101DA000042FD22E60E00E941008FC01009761F120
:101DB00080819181892B11F417ED27C0D4828F2D5A
:101DC0009E2D612F40E0202F0E94D308082F8823EA
:101DD00011F414ED1AC08F2D9E2D602F0E94100853
:101DE000FC01009789F0D4828F2D9E2D60E040E0A9
:101DF000202F0E94960E182F882339F08F2D9E2DAC
:101E0000602F0E94FC0901C016ED812F1F910F91D8
:101E1000FF90EF90DF9008958F929F92AF92BF92C4
:101E2000CF92EF92FF920F934901302F00D000D054
:101E300000D0EDB7FEB73196ADB7BEB712969C9203
:101E40008E921197F382E2821582148220E806E0D6
:101E5000E32EA2E0CA2EAA24BB240E94690D2DB74E
:101E60003EB72A5F3F4F0FB6F8943EBF0FBE2DBF5F
:101E70000F91FF90EF90CF90BF90AF909F908F9079
:101E800008953F924F925F926F927F928F929F92AE
:101E9000AF92BF92CF92DF92EF92FF920F931F9378
:101EA000DF93CF93CDB7DEB7C054D0400FB6F894D0
:101EB000DEBF0FBECDBF5C01562E442E322E380140
:101EC00029E030E0032D6E010894C11CD11C76017D
:101ED0000E940C0F882349F500D000D000D0EDB748
:101EE000FEB731968B809C8080E490E0ADB7BEB7A2
:101EF00012969C938E931197D382C28275826482CC
:101F0000C501652D442D20E806E0E32CB2E0CB2E80
:101F1000AA24BB240E94690D2DB73EB72A5F3F4F0C
:101F20000FB6F8943EBF0FBE2DBFC05CDF4F0FB69B
:101F3000F894DEBF0FBECDBFCF91DF911F910F91FF
:101F4000FF90EF90DF90CF90BF90AF909F908F90D9
:101F50007F906F905F904F903F9008958F929F92E7
:101F6000AF92BF92CF92EF920F931F93490100D08F
:101F700000D000D0EDB7FEB73196ADB7BEB7129620
:101F80003C932E931197138302831582148220E8C9
:101F900006E0EE24CC24C394AA24BB240E94690D3D
:101FA0002DB73EB72A5F3F4F0FB6F8943EBF0FBE26
:101FB0002DBF1F910F91EF90CF90BF90AF909F904A
:101FC0008F9008952F923F924F925F926F927F92DF
:101FD0008F929F92AF92BF92CF92DF92EF92FF9239
:101FE0000F931F93DF93CF93CDB7DEB765970FB6EF
:101FF000F894DEBF0FBECDBF4C01662E342E722E7C
:10200000198288E08A838CE38B83D401ED91FC9163
:102010000190F081E02DC40160E009956C0100970A
:1020200011F486EDA6C0FC01E080F180CE0101969E
:1020300091838083748204E0A02EB12CAC0EBD1E6F
:10204000C40160E040E022E130E085010E94AE0F73
:10205000D601ED92FC92882309F08BC0F5014084F3
:102060005184E284F384248016E5A12EB12CA80CBF
:10207000B91C650110E0F601A081B181109799F1BA
:10208000ED91FC9111970084F185E02DCD0109952A
:10209000882349F5D601ED91FC91A081B1811C9670
:1020A0002D913C911D97CF01B201A701F90109952E
:1020B000882379F4D601ED91FC91A081B1811E961F
:1020C0002D913C911F97CF01622DF901099588232D
:1020D00051F0C401612F462D232D072D0E94200AA7
:1020E000813D09F046C01F5FE2E0F0E0CE0EDF1E4A
:1020F000103109F610E0F501A081B181109761F16E
:10210000ED91FC9111970084F185E02DCD010995A9
:10211000882311F5D501ED91FC91A081B1811C9628
:102120002D913C911D97CF01B201A701F9010995AD
:10213000882391F4D501ED91FC91A081B1811E9687
:102140002D913C911F97CF01622DF90109958823AC
:1021500019F428C0893D69F41F5FE2E0F0E0AE0E9B
:10216000BF1E103141F6C401662D432D272D0E945C
:10217000C80E65960FB6F894DEBF0FBECDBFCF91E7
:10218000DF911F910F91FF90EF90DF90CF90BF9064
:10219000AF909F908F907F906F905F904F903F9007
:1021A0002F900895C401612F462D232D072D0E94E5
:1021B000200A813D79F6D0CF9F92AF92BF92CF9205
:1021C000DF92EF92FF920F931F93CF93DF936C01F7
:1021D000A82E9D2C199902C00E944C098091BA0228
:1021E000813049F0813048F0823019F0833039F580
:1021F0000DC0BB240DC083E106C08091BB02807F6F
:102200008031E9F081E18093BB0219C0BB24B39413
:102210008091BB02807F803199F40E94CE14685374
:102220007F4F8F4F9F4F6093BD027093BE0280938C
:10223000BF029093C00280E28093BB0201C0BB2426
:1022400086E5E82EF12CEC0CFD1CE70110E0A881DE
:10225000B981109741F0ED91FC9111970680F781BB
:10226000E02DCD0109951F5F2296103181F78091F5
:10227000BB02803409F44CC0813440F4803269F1EF
:102280008033F1F1813109F094C00AC0813509F43D
:102290006DC0803809F47CC0803509F08AC04DC01B
:1022A00086E790E0C80ED91EF601108210E0F70113
:1022B000A081B181109741F0ED91FC9111970480BC
:1022C000F581E02DCD0109951F5F82E090E0E80ED9
:1022D000F91E103161F782E16AC0E090BD02F09012
:1022E000BE020091BF021091C0020E94CE14E616F9
:1022F000F7060807190708F05CC080E38093BB026B
:102300008A2D992D68EE41E00E94860080E44FC03E
:102310008A2D992D68EE0E94920080FD4AC08A2D78
:10232000992D68ED0E949200482F48608A2D992DC2
:1023300068ED0E94860080E53AC08A2D992D68ECF0
:102340000E94920086FF35C081E58093BB020E9407
:10235000CE146C5E7F4F8F4F9F4F6093BD02709382
:10236000BE028093BF029093C00223C0E090BD02E2
:10237000F090BE020091BF021091C0020E94CE14E4
:10238000E616F70608071907A0F480E88093BB0259
:10239000C60160E040E02B2D0E94E20F882331F05F
:1023A000823D39F08093BC0280EA01C080E98093CD
:1023B000BB02DF91CF911F910F91FF90EF90DF90C3
:1023C000CF90BF90AF909F90089508951F920F9265
:1023D0000FB60F9211242F933F934F938F939F9398
:1023E000EF93FF938091C00082FD1DC04091C60015
:1023F00020910103309102032F5F3F4F2F73307004
:1024000080910303909104032817390771F0E0913C
:102410000103F0910203EF53FD4F40833093020319
:102420002093010302C08091C600FF91EF919F911C
:102430008F914F913F912F910F900FBE0F901F9052
:102440001895E0915503F0915603E05CFF4F8191A0
:10245000919120813181821B930B8F739070892B16
:1024600011F00E94E51108951F920F920FB60F927E
:1024700011242F933F938F939F93EF93FF9320917A
:1024800045033091460380914703909148032817F4
:10249000390731F48091C1008F7D8093C10014C051
:1024A000E0914703F0914803EB5FFC4F208180915E
:1024B00047039091480301968F739070909348035F
:1024C000809347032093C600FF91EF919F918F91D6
:1024D0003F912F910F900FBE0F901F901895AF92C4
:1024E000BF92DF92EF92FF920F931F93CF93DF93F0
:1024F000EC017A018B01DD24403081EE580780E049
:10250000680780E0780711F0DD24D39491E0A92ECC
:10251000B12CEC89FD89DD2069F0C50108A002C05D
:10252000880F991F0A94E2F7808360E079E08DE3D9
:1025300090E005C0108260E874E88EE190E0A801A8
:1025400097010E94631521503040404050405695FD
:1025500047953795279580E12030380720F0DD201A
:1025600011F0DD24D6CFE889F9893083EA89FB8927
:10257000208319A2EE89FF89408121E030E0C90162
:102580000C8C02C0880F991F0A94E2F7482B4083F5
:10259000EE89FF894081C9010D8C02C0880F991F07
:1025A0000A94E2F7482B4083EE89FF894081C901F4
:1025B0000E8C02C0880F991F0A94E2F7482B4083C3
:1025C000EE89FF8980810F8C02C0220F331F0A948D
:1025D000E2F7209528232083DF91CF911F910F915F
:1025E000FF90EF90DF90BF90AF900895DC011C96B4
:1025F000ED91FC911D97E05CFF4F2191319180811D
:102600009181281B390B2F733070C9010895DC01AB
:102610001C96ED91FC911D97E05CFF4F208131816C
:10262000E054F040DF01AE5BBF4F8D919C9111975C
:102630002817390719F42FEF3FEF07C08D919C91B0
:10264000E80FF91F8081282F30E0C9010895DC01CF
:102650001C96ED91FC911D97E05CFF4F208131812C
:10266000E054F040DF01AE5BBF4F8D919C9111971C
:102670002817390719F42FEF3FEF10C08D919C9167
:102680001197E80FF91F20818D919C911197019668
:102690008F73907011969C938E9330E0C9010895CA
:1026A000DC0191968C919197882339F05496ED91A5
:1026B000FC915597808186FFF9CF91961C920895E1
:1026C000CF93DF93EC01EE85FF85E05CFF4F208127
:1026D0003181E054F0402F5F3F4F2F733070DF01A6
:1026E000AE5BBF4F8D919C91119728173907D1F39D
:1026F000E05CFF4F80819181E054F040E80FF91FCA
:102700006083EE85FF85E05CFF4F31832083EE8997
:10271000FF89208181E090E00F8C02C0880F991F13
:102720000A94E2F7282B208381E089A3EC89FD89B4
:1027300080818064808381E090E0DF91CF91089573
:1027400010924C0310924B0388EE93E0A0E0B0E0AF
:1027500080934D0390934E03A0934F03B093500387
:1027600080E192E090934A038093490381EC92E0E8
:10277000909356038093550385E093E0909358031C
:102780008093570385EC90E090935A03809359030C
:1027900084EC90E090935C0380935B0380EC90E08A
:1027A00090935E0380935D0381EC90E090936003CF
:1027B00080935F0382EC90E09093620380936103C7
:1027C00086EC90E0909364038093630384E08093AD
:1027D000650383E08093660387E08093670385E069
:1027E0008093680381E0809369030895CF93DF931A
:1027F0000E9428150E943705C1E2D2E10E94E2043E
:102800002097E1F30E942112F9CFCF92DF92EF924D
:10281000FF920F931F93CF93DF937C016B018A018B
:10282000C0E0D0E00FC0D6016D916D01D701ED91F0
:10283000FC910190F081E02DC7010995C80FD91FC7
:10284000015010400115110571F7CE01DF91CF91B4
:102850001F910F91FF90EF90DF90CF900895DC01D2
:10286000ED91FC910190F081E02D09950895EF9292
:10287000FF920F931F938C01DC01ED91FC9101906D
:10288000F081E02D6DE009957C01D801ED91FC917E
:102890000190F081E02DC8016AE009959C012E0DA0
:1028A0003F1DC9011F910F91FF90EF900895CF93A5
:1028B000DF93EC016115710519F420E030E00FC0E1
:1028C000DB010D900020E9F71197A61BB70BE881FB
:1028D000F9810280F381E02DAD0109959C01C901C8
:1028E000DF91CF910895EF92FF920F931F937C0198
:1028F0000E9457148C01C7010E943714080F191F3A
:10290000C8011F910F91FF90EF9008951F920F92B1
:102910000FB60F9211242F933F938F939F93AF93F2
:10292000BF9380916F0390917003A0917103B09158
:102930007203309173030196A11DB11D232F2D5FEA
:102940002D3720F02D570196A11DB11D2093730343
:1029500080936F0390937003A0937103B0937203FD
:1029600080916B0390916C03A0916D03B0916E0305
:102970000196A11DB11D80936B0390936C03A093EE
:102980006D03B0936E03BF91AF919F918F913F9173
:102990002F910F900FBE0F901F9018958FB7F8943E
:1029A00020916F0330917003409171035091720335
:1029B0008FBFB901CA0108959FB7F89420916B03A6
:1029C00030916C0340916D0350916E0386B5A89BC6
:1029D00006C08F3F21F02F5F3F4F4F4F5F4F9FBF8C
:1029E000542F432F322F2227280F311D411D511DF7
:1029F00082E0220F331F441F551F8A95D1F7B9017A
:102A0000CA010895EF92FF920F931F93CF93DF9324
:102A10007B018C010E94DC14EB010EC00E94DC14CF
:102A20006C1B7D0B685E7340C8F30894E108F108E5
:102A300001091109C851DC4FE114F1040105110528
:102A400069F7DF91CF911F910F91FF90EF9008955B
:102A5000789484B5826084BD84B5816084BD85B579
:102A6000826085BD85B5816085BDEEE6F0E0808140
:102A700081608083E1E8F0E0108280818260808361
:102A8000808181608083E0E8F0E0808181608083E4
:102A9000E1EBF0E0808184608083E0EBF0E0808116
:102AA00081608083EAE7F0E08081846080838081B8
:102AB0008260808380818160808380818068808360
:102AC0001092C1000895A1E21A2EAA1BBB1BFD01A2
:102AD0000DC0AA1FBB1FEE1FFF1FA217B307E407FD
:102AE000F50720F0A21BB30BE40BF50B661F771F55
:102AF000881F991F1A9469F7609570958095909535
:102B00009B01AC01BD01CF010895EE0FFF1F0590A1
:0A2B1000F491E02D0994F894FFCF32
:102B1A004374726C4B69726920626572756261688E
:102B2A000053686966744B697269206265727562DE
:102B3A00616800416C744B697269206265727562E2
:102B4A006168004755494B6972692062657275620E
:102B5A006168004374726C4B616E616E20626572CB
:102B6A00756261680053686966744B616E616E20B4
:102B7A006265727562616800416C744B616E616E68
:102B8A002062657275626168004755494B616E61E2
:102B9A006E20626572756261680053696170206DAA
:102BAA00656D6261636120426172636F646520646E
:102BBA006172692055534220426172636F646520D5
:102BCA005363616E6E657221004F534320746964CA
:102BDA00616B206D656D756C61692E0000000000E7
:102BEA004E065C07E70478057B006C0500000000D0
:102BFA0066027400320107025C01760077007900F0
:102C0A005F017C007201FEFF000068010000000005
:102C1A00AF04000000001008D308FC0900000000FF
:0C2C2A0060130514F61227130713501353
:00000001FF
